{
  "_format": "hh-sol-artifact-1",
  "contractName": "ZombieFactory",
  "sourceName": "contracts/zombie.sol",
  "abi": [
    {
      "anonymous": false,
      "inputs": [
        {
          "indexed": false,
          "internalType": "uint256",
          "name": "zombieId",
          "type": "uint256"
        },
        {
          "indexed": false,
          "internalType": "string",
          "name": "name",
          "type": "string"
        },
        {
          "indexed": false,
          "internalType": "uint256",
          "name": "dna",
          "type": "uint256"
        }
      ],
      "name": "NewZombie",
      "type": "event"
    },
    {
      "inputs": [
        {
          "internalType": "string",
          "name": "_name",
          "type": "string"
        }
      ],
      "name": "createRandomZombie",
      "outputs": [],
      "stateMutability": "nonpayable",
      "type": "function"
    },
    {
      "inputs": [
        {
          "internalType": "uint256",
          "name": "",
          "type": "uint256"
        }
      ],
      "name": "zombies",
      "outputs": [
        {
          "internalType": "string",
          "name": "name",
          "type": "string"
        },
        {
          "internalType": "uint256",
          "name": "dna",
          "type": "uint256"
        }
      ],
      "stateMutability": "view",
      "type": "function"
    }
  ],
  "bytecode": "0x60806040526010600055600054600a6200001a9190620001be565b6001553480156200002a57600080fd5b506200020f565b7f4e487b7100000000000000000000000000000000000000000000000000000000600052601160045260246000fd5b60008160011c9050919050565b6000808291508390505b6001851115620000bf5780860481111562000097576200009662000031565b5b6001851615620000a75780820291505b8081029050620000b78562000060565b945062000077565b94509492505050565b600082620000da5760019050620001ad565b81620000ea5760009050620001ad565b81600181146200010357600281146200010e5762000144565b6001915050620001ad565b60ff84111562000123576200012262000031565b5b8360020a9150848211156200013d576200013c62000031565b5b50620001ad565b5060208310610133831016604e8410600b84101617156200017e5782820a90508381111562000178576200017762000031565b5b620001ad565b6200018d84848460016200006d565b92509050818404811115620001a757620001a662000031565b5b81810290505b9392505050565b6000819050919050565b6000620001cb82620001b4565b9150620001d883620001b4565b9250620002077fffffffffffffffffffffffffffffffffffffffffffffffffffffffffffffffff8484620000c8565b905092915050565b610916806200021f6000396000f3fe608060405234801561001057600080fd5b50600436106100365760003560e01c80632052465e1461003b5780637bff0a011461006c575b600080fd5b61005560048036038101906100509190610287565b610088565b604051610063929190610353565b60405180910390f35b610086600480360381019061008191906104b8565b610144565b005b6002818154811061009857600080fd5b90600052602060002090600202016000915090508060000180546100bb90610530565b80601f01602080910402602001604051908101604052809291908181526020018280546100e790610530565b80156101345780601f1061010957610100808354040283529160200191610134565b820191906000526020600020905b81548152906001019060200180831161011757829003601f168201915b5050505050908060010154905082565b600061014f8261015f565b905061015b8282610185565b5050565b600080828051906020012060001c90506001548161017d9190610590565b915050919050565b6002604051806040016040528084815260200183815250908060018154018082558091505060019003906000526020600020906002020160009091909190915060008201518160000190816101da919061076d565b50602082015181600101555050600060016002805490506101fb919061086e565b90507f88f026aacbbecc90c18411df4b1185fd8d9be2470f1962f192bf84a27d0704b7818484604051610230939291906108a2565b60405180910390a1505050565b6000604051905090565b600080fd5b600080fd5b6000819050919050565b61026481610251565b811461026f57600080fd5b50565b6000813590506102818161025b565b92915050565b60006020828403121561029d5761029c610247565b5b60006102ab84828501610272565b91505092915050565b600081519050919050565b600082825260208201905092915050565b60005b838110156102ee5780820151818401526020810190506102d3565b60008484015250505050565b6000601f19601f8301169050919050565b6000610316826102b4565b61032081856102bf565b93506103308185602086016102d0565b610339816102fa565b840191505092915050565b61034d81610251565b82525050565b6000604082019050818103600083015261036d818561030b565b905061037c6020830184610344565b9392505050565b600080fd5b600080fd5b7f4e487b7100000000000000000000000000000000000000000000000000000000600052604160045260246000fd5b6103c5826102fa565b810181811067ffffffffffffffff821117156103e4576103e361038d565b5b80604052505050565b60006103f761023d565b905061040382826103bc565b919050565b600067ffffffffffffffff8211156104235761042261038d565b5b61042c826102fa565b9050602081019050919050565b82818337600083830152505050565b600061045b61045684610408565b6103ed565b90508281526020810184848401111561047757610476610388565b5b610482848285610439565b509392505050565b600082601f83011261049f5761049e610383565b5b81356104af848260208601610448565b91505092915050565b6000602082840312156104ce576104cd610247565b5b600082013567ffffffffffffffff8111156104ec576104eb61024c565b5b6104f88482850161048a565b91505092915050565b7f4e487b7100000000000000000000000000000000000000000000000000000000600052602260045260246000fd5b6000600282049050600182168061054857607f821691505b60208210810361055b5761055a610501565b5b50919050565b7f4e487b7100000000000000000000000000000000000000000000000000000000600052601260045260246000fd5b600061059b82610251565b91506105a683610251565b9250826105b6576105b5610561565b5b828206905092915050565b60008190508160005260206000209050919050565b60006020601f8301049050919050565b600082821b905092915050565b6000600883026106237fffffffffffffffffffffffffffffffffffffffffffffffffffffffffffffffff826105e6565b61062d86836105e6565b95508019841693508086168417925050509392505050565b6000819050919050565b600061066a61066561066084610251565b610645565b610251565b9050919050565b6000819050919050565b6106848361064f565b61069861069082610671565b8484546105f3565b825550505050565b600090565b6106ad6106a0565b6106b881848461067b565b505050565b5b818110156106dc576106d16000826106a5565b6001810190506106be565b5050565b601f821115610721576106f2816105c1565b6106fb846105d6565b8101602085101561070a578190505b61071e610716856105d6565b8301826106bd565b50505b505050565b600082821c905092915050565b600061074460001984600802610726565b1980831691505092915050565b600061075d8383610733565b9150826002028217905092915050565b610776826102b4565b67ffffffffffffffff81111561078f5761078e61038d565b5b6107998254610530565b6107a48282856106e0565b600060209050601f8311600181146107d757600084156107c5578287015190505b6107cf8582610751565b865550610837565b601f1984166107e5866105c1565b60005b8281101561080d578489015182556001820191506020850194506020810190506107e8565b8683101561082a5784890151610826601f891682610733565b8355505b6001600288020188555050505b505050505050565b7f4e487b7100000000000000000000000000000000000000000000000000000000600052601160045260246000fd5b600061087982610251565b915061088483610251565b925082820390508181111561089c5761089b61083f565b5b92915050565b60006060820190506108b76000830186610344565b81810360208301526108c9818561030b565b90506108d86040830184610344565b94935050505056fea2646970667358221220a67ea25746ab9cc63d74d00e0ce745a2f6e7d4a93debd408027c88ca03156dda64736f6c63430008110033",
  "linkReferences": {},
  "deployedLinkReferences": {}
}